:020000020000FC
:1000000020C038E04BE250E05A95F1F74A95D9F715
:100010003A95C1F7089531E040E450E05A95F1F780
:100020004A95D9F73A95C1F708952F93F4DF2A95A9
:10003000E9F72F9108951F93E4DF1A95E9F71F91CF
:1000400008950FEF07B904B90AB900C001E00BB970
:1000500004E008B904E005B918EC2B9A22E0E5DFCA
:100060002B9822E0E2DF1A95C1F700E005B908B944
:100070000BB900C001E00BB904E008B900E005B914
:1000800019E1299A22E0D1DF299822E0CEDF1A95E2
:10009000C1F700E005B908B90BB900C001E00BB920
:1000A00001E008B901E005B918E2C5DF00E005B9D3
:1000B00008B90BB900C001E00BB901E005B900E0D7
:1000C00008B919E1419A22E0B0DF419822E0ADDFA2
:1000D0001A95C1F700E005B908B90BB900C004E0F2
:1000E0000BB904E008B901E005B918E2A4DF00E0AB
:1000F00005B908B90BB900C004E008B901E005B9B9
:1001000000E00BB919E1599A22E08FDF599822E0FB
:100110008CDF1A95C1F700E005B908B90BB996CF85
:00000001FF
